:02000002B0004C
:1040000000400B0092520B00000006000C0005025D
:084010000401B41400000000DB
:04401800944F0B00B6
:10401C00034613F8012B002AFBD1181A01387047FC
:10402C0009480A49884208B505D0094A824202D09B
:10403C00121A00F0FFFE0748074A0021121A00F07E
:10404C0007FF014808BD00BF40E60320F8510B00F4
:10405C00ACE60320ACE60320F0E7032070B5074E76
:10406C00074C00F02FFBA41BA4080025AC4200D188
:10407C0070BD56F8043B98470135F7E7B0510B007B
:10408C00D4510B0000F013B808B500F01BF8BDE8D4
:10409C00084000F0CFBA00F0C7B900F0CDB90078F5
:1040AC00B0FA80F04009704701230370704708B5DF
:1040BC000121032000F0FAFDBDE808400021082092
:1040CC0000F0F4BD08B5082000F01AFEBDE8084069
:1040DC00C1B2032000F0FBBD10B5074B074A9A6034
:1040EC000024C3E90044032000F012F9214601200A
:1040FC00BDE8104000F014B9ACE603200000FFFF4F
:10410C0008B5024B1B689B68019308BD680203004D
:10411C0008B5024B1B68DB68019308BD68020300FD
:10412C0008B5024B1B689B68019308BD2C02030069
:10413C0008B5024B1B68DB68019308BD2C02030019
:10414C0008B5024B1B681B69019308BD2C020300C8
:10415C0008B5024B1B685B69019308BD2C02030078
:10416C0008B5024B1B685B68019308BD180203007D
:10417C0008B5024B1B685B69019308BD180203006C
:10418C0008B5024B1B685B6C019308BD4802030029
:10419C0008B5024B1B685B69019308BD6402030000
:1041AC0008B5024B1B68DB68019308BD3C02030099
:1041BC0008B5024B1B681B69019308BD3C02030048
:1041CC0008B5024B1B685B69019308BD3C020300F8
:1041DC0008B5024B1B689B69019308BD3C020300A8
:1041EC0008B5024B1B68DB69019308BD3C02030058
:1041FC0008B5024B1B681B6A019308BD3C02030007
:10420C0008B5024B1B689B6A019308BD3C02030076
:10421C0008B5024B1B681B6C019308BD3C020300E4
:10422C0008B5024B1B681B6A019308BD28020300EA
:10423C0008B5024B1B685B6A019308BD280203009A
:10424C0008B5024B1B689B6A019308BD280203004A
:10425C0008B5024B1B68DB6A019308BD28020300FA
:10426C0008B5024B1B681B6B019308BD28020300A9
:10427C0008B5024B1B685B6B019308BD2802030059
:10428C0008B5024B1B681B6C019308BD2802030088
:10429C0008B5024B1B68DB69019308BD30020300B3
:1042AC0008B5024B1B681B6A019308BD3002030062
:1042BC0008B5024B1B681B68019308BD4C02030038
:1042CC0008B5024B1B681B69019308BD4C02030027
:1042DC0008B5024B1B685B69019308BD4C020300D7
:1042EC0008B5024B1B689B69019308BD4C02030087
:1042FC0008B5024B1B68DB69019308BD4C02030037
:10430C0008B5024B1B681B6A019308BD4C020300E5
:10431C0008B5024B1B685B68019308BD20020300C3
:10432C0008B5024B1B68DB6A019308BD2002030031
:10433C0008B5034B1B68D3F88830019308BD000007
:10434C002002030008B5034B1B68D3F8943001938B
:10435C0008BD00002002030008B5024B1B685B6817
:10436C00019308BD4002030008B5024B1B689B6813
:10437C00019308BD4002030008B5024B1B68DB68C3
:10438C00019308BD4002030008B5024B1B681B6972
:10439C00019308BD4002030008B5024B1B685B6922
:1043AC00019308BD4002030008B5024B1B689B69D2
:1043BC00019308BD4002030008B5024B1B68DB6982
:1043CC00019308BD4002030008B5024B1B681B6A31
:1043DC00019308BD4002030008B5024B1B681B6B20
:1043EC00019308BD4002030008B5024B1B685B6BD0
:1043FC00019308BD4002030008B5024B1B681B6CFF
:10440C00019308BD4002030008B5024B1B685B6CAE
:10441C00019308BD4002030008B5024B1B68DB6B1F
:10442C00019308BD4402030008B5024B1B681B68CE
:10443C00019308BD1C02030008B5024B1B685B68A6
:10444C00019308BD1C02030008B5024B1B681B6CD2
:10445C00019308BD1C02030008B5024B1B685B6C82
:10446C00019308BD1C020300002240681146FFF7AF
:10447C00ABBF002240681146FFF7B6BF4068002270
:10448C00FFF7AABF4068002281F00101FFF794BF3B
:10449C00002340681A461946FFF786BF0023406880
:1044AC001A461946FFF778BF002240681146FFF7FD
:1044BC006BBF002240681146FFF756BF40680022D0
:1044CC000221FFF759BF002340681A46FFF744BF8B
:1044DC00024B03225A60024A1A607047B8E6032066
:1044EC00B04F0B0010B5044608462170FFF7D0FE04
:1044FC0000236360204610BD054B02221A60054B59
:10450C00054A9A600020C3E90000FFF701BF00BF15
:10451C00CCE60320C0E603200000FFFF0248002386
:10452C000360FFF72DBE00BFD0E60320F8B50646AA
:10453C000D468F180024BD420CD0336815F8011BB2
:10454C009B6830469847031E01DB1C44F3E7002CA4
:10455C0008BF1C462046F8BD13B50446084659B1A1
:10456C000191FFF755FD23680199DB68024620464F
:10457C0002B0BDE81040184702B010BD03689B683C
:10458C00184730B58BB00023012A8DF8243098BF22
:10459C000A2209AC0D46B1FBF2F101FB125303F0F8
:1045AC00FF03092B94BF30333733DBB2AA4204F834
:1045BC00013DEFD92146FFF7CFFF0BB030BD000016
:1045CC00014B024A1A607047D4E60320E44F0B00FB
:1045DC00024B1A68024B1A60704700BF40E603207A
:1045EC00D8E60320014B00229A607047DCE60320DA
:1045FC00014B1860704700BF44E6032008B50B4B15
:10460C0043B100F063F903681B699847002801DD8A
:10461C00AFF30080064B43B100F0A0FB03681B69AD
:10462C009847002801DDAFF3008008BD00000000B2
:10463C000000000008B5FFF7E1FFFFF799FD014B03
:10464C00186008BD40E703200548064A064908B52E
:10465C00121A00F0EFFB054B054A1A6008BD00BFAB
:10466C0000F4032004F4032064520B0000F4032034
:10467C001E1C279A07B5002300931A466FF077018A
:10468C00FFF760FE03B05DF804FB000007B543883C
:10469C000A2B08D0502B0BD1094B1B684BB103B024
:1046AC005DF804EB1847FFF7E5FF03B05DF804FB7A
:1046BC00002300931A466FF07701FFF743FEF4E7EF
:1046CC00F0E6032010B512480021FFF7C5FE114B90
:1046DC001A68114B9A42114B0CBF012200221A701E
:1046EC0001D0FFF7B1FFFFF73BFD044600F0B8FB2C
:1046FC000B4B13B12046AFF3008000210848FFF7A5
:10470C008BFEBDE8104007480021FFF711BE00BF2B
:10471C00FD450B0000F403201E1C279AECE6032039
:10472C000000000099460B00704710B51821044694
:10473C00FFF7B3FC204610BDF0B5037D062B8DB002
:10474C000E4600F104074FF0000412D000F10805EA
:10475C0015F8011D0A223046FFF713FFAF4204443F
:10476C0019D0002CF4D02E213046FFF707FF04445B
:10477C00EEE72F236A4639460A208DF80040FFF7F2
:10478C0007FD6846FFF744FC33680246DB68694660
:10479C0030469847044620460DB0F0BD10B5054B89
:1047AC000446112240F8043B002100F051FB204646
:1047BC0010BD00BF0C500B000346074A10B543F860
:1047CC00042B01F1100251F8044B43F8044B9142B5
:1047DC00F9D10A781A7010BD0C500B0010B59DF869
:1047EC00084044EA032343EA024242EA01610423FB
:1047FC004160037510BD000007B5064B0360CB7814
:10480C0000938B784A780978FFF7E8FF03B05DF8DE
:10481C0004FB00BF0C500B0041747047704770478D
:10482C0008B50021007CFFF75BFD40EAE07008BD95
:10483C0008B50121007CFFF753FD40EAE07008BD8C
:10484C0008B5007CFFF744FD20EAE07008BD08B510
:10485C00007CFFF735FD20EAE07008BD13B5044677
:10486C00007C0191FFF734FD0028019901DC607C8C
:10487C0020B1207CFFF73CFD20EAE07002B010BDB7
:10488C00007CFFF73DBD10B514210446FFF705FC75
:10489C00204610BD10B54FF47A730446084600212B
:1048AC00C4E90113044B2360012320746374114683
:1048BC00FFF7FEFC204610BD20500B0010B5142253
:1048CC000446002100F0C4FA204610BD10B50F4C70
:1048DC0088B003A8FFF7F2FF2178BFF35B8F11F0CC
:1048EC0001010FD120460191FFF7D9FB019948B185
:1048FC0003AA0748FFF7CEFF2046FFF7D5FB054874
:10490C0000F092FA024808B010BD00BFF4E6032094
:10491C00F8E6032029480B0070474174704708B52E
:10492C00007CFFF76DFC20EAE07008BD08B5007C48
:10493C00FFF73EFC20EAE07008BD08B5007CFFF7ED
:10494C0047FC40EAE07008BD08B5007CFFF738FC76
:10495C0040EAE07008BD007CFFF742BC37B5457CEF
:10496C0004462DB1207C03B0BDE83040FFF718BCE5
:10497C00007C0191FFF744FC00280199F2DC2846E9
:10498C0003B030BD10B514210446FFF786FB20465A
:10499C0010BD000010B54FF47A730446084611465A
:1049AC000022C4E90123044B2360012320746374A7
:1049BC00FFF72EFC204610BD50500B007047F8B589
:1049CC00064615460C468F18BC4206D0336814F8C0
:1049DC00011B9B6830469847F6E72846F8BD007CDB
:1049EC000022FFF71DBC007C0021FFF721BC007CDE
:1049FC000021FFF725BC007C0021FFF729BC007CBF
:104A0C000021FFF72DBC10B514210446FFF745FB20
:104A1C00204610BD38B5044615464FF47A73002273
:104A2C00C4E90123094B2174084623602946FFF78A
:104A3C0027FCBF3008D16B69DB0705D56868FFF729
:104A4C00FBFCE868FFF7F8FC204638BD80500B00F3
:104A5C00002240681146FFF797BC002240681146BF
:104A6C00FFF7B2BC002240681146FFF7BDBC40689E
:104A7C000022FFF7B1BC4068002281F00101FFF772
:104A8C009BBC002340681A461946FFF78DBC0023D7
:104A9C0040681A461946FFF77FBC00224068114651
:104AAC00FFF762BC406800220221FFF765BC0023BF
:104ABC0040681A46FFF750BC024B04225A60024A67
:104ACC001A6070470CE70320A8500B0000234068C5
:104ADC001A46FFF741BC406800220221FFF74CBC8C
:104AEC00002240681146FFF73FBC00224068114687
:104AFC00FFF74ABC002340681A461946FFF74CBC26
:104B0C00002340681A461946FFF74EBC4068002146
:104B1C00FFF772BC40680021FFF776BC40680022AA
:104B2C0081F00101FFF748BC40680022FFF754BC3C
:104B3C00002240681146FFF757BC0022406811461E
:104B4C00FFF742BC2DE9F04395B014460D460746DD
:104B5C00FFF724FE00211C220DA8009100F078F92B
:104B6C0040230C9320466B460CAA0021FFF7D0FA89
:104B7C00044600284BD1024601216868FFF704FC6B
:104B8C000221804622466868FFF7FEFB009E8146A4
:104B9C002146002E3BD0002939D17368022B03D05B
:104BAC000A2B11D0F669F4E7B8F1000FFAD071694D
:104BBC0006A8043107ADFFF71FFE0FCD3C1D0FC437
:104BCC002B6823704146EDE7B9F1000FEAD0746908
:104BDC00102201A800F03CF906238DF8143001AD29
:104BEC0004F108031834186859682A4603C20833BC
:104BFC00A3421546F7D101A906A807ADFFF7DCFDC6
:104C0C000FCD3C1D0FC42B6823704946CAE7009892
:104C1C00FFF776FA384615B0BDE8F083024B034A2D
:104C2C001A6000225A60704714E70320E4500B000E
:104C3C00232813B502D9002002B010BDA0F10B033C
:104C4C00022B1AD8174C2178BFF35B8F11F001019E
:104C5C000BD120460191FFF722FA019928B1124895
:104C6C00FFF740FC2046FFF71FFA0F4B1878FFF7B1
:104C7C0017FB0028DFD10120DEE7012809D800F05E
:104C8C00ADF80021007CFFF7F3FA80F00100C0B210
:104C9C00D2E709380128EED800F060F8007CFFF765
:104CAC00A7FAF2E71CE7032020E70320232838B5F6
:104CBC0004460D460AD8FF2908D0FFF7B9FF28B1E2
:104CCC0029462046BDE83840FFF72ABA38BD38B52A
:104CDC0004460D46FFF72CFAFF2810D0062804D8FE
:104CEC004D2323FA00F0C30709D42046FFF7A0FF99
:104CFC0028B129462046BDE83840FFF721BA38BD17
:104D0C0010B50446FFF714FA031FDBB2012B08D9C8
:104D1C002046FFF78DFF20B12046BDE81040FFF77D
:104D2C0017BA002010BD704738B5044614252A4622
:104D3C00002100F08DF82580402507492581284663
:104D4C00258200F06FF804496060284600F06AF88C
:104D5C00E060204638BD00BF18510B0030B50E4D39
:104D6C002978BFF35B8F11F0010487B011D128466D
:104D7C00FFF795F968B101A8FFF7D6FF01AA214604
:104D8C000648FFF707FE2846FFF78EF9044800F0A7
:104D9C004BF8024807B030BD28E703202CE703206E
:104DAC00334D0B007047000038B50A4B03600123EC
:104DBC00044643610849202000F034F82025606047
:104DCC000549A560284600F02DF8C4E903052046E6
:104DDC0038BD00BF1800010018510B0030B50E4D46
:104DEC002978BFF35B8F11F0010487B011D12846ED
:104DFC00FFF755F968B16846FFF7D6FF6A462146BA
:104E0C000648FFF707FE2846FFF74EF9044800F066
:104E1C000BF8024807B030BD44E7032048E70320F5
:104E2C00B14D0B00FFF737B9002301461A4618465F
:104E3C0000F044B80A44914200F1FF3300D17047AE
:104E4C0010B511F8014B03F8014F9142F9D110BD87
:104E5C0002440346934200D1704703F8011BF9E763
:104E6C0038B5104B1D68AB6B0446B3B91820FFF76F
:104E7C00DBFA0246A86320B90B4B0C484221FFF722
:104E8C00E3FA0B490B4BC0E900130B4B83600B236C
:104E9C00838100210120C2E90401AB6B00221C615B
:104EAC005A6138BD44E6032019510B0030510B00F8
:104EBC000E33CDAB34126DE6ECDE05002DE9F84374
:104ECC00DFF8B8800646D8F800001F460D4691461C
:104EDC0000F056F8254B1C6834B9254C1C60254B4A
:104EEC0013B11B68C4F8883063681F2B07DDD8F832
:104EFC00000000F047F84FF0FF30BDE8F8834EB3E8
:104F0C00D4F8880088B91C4B23B9D8F8000000F0FD
:104F1C0038F8F0E74FF48470FFF786FA0028F4D0E5
:104F2C000023C0E94033C4F88800636840F823903C
:104F3C0001229A4000EB8301D0F800311343C0F8F2
:104F4C000031022EC1F8807002BFD0F80431134337
:104F5C00C0F804316368D8F800005A1C0233626050
:104F6C0044F8235000F00EF80020C6E7E8E70320D1
:104F7C005CE703200000000035440B00A8E603208A
:104F8C0070477047704700002D400B0069400B00C4
:104F9C0091400B0095400B00000000000000000049
:104FAC0000000000D3440B00C9440B00BF440B00AD
:104FBC00B5440B00A9440B009D440B00194B0B008E
:104FCC00214B0B0091440B0089440B007F440B00D8
:104FDC0075440B00514B0B006170700025592D2549
:104FEC006D2D25645425483A254D3A2553257A00D4
:104FFC0061736374696D65000000000000000000BF
:10500C0045470B0035470B0037470B0000000000ED
:10501C00000000002B480B0093480B0069480B0064
:10502C0039450B005B480B002D480B003D480B002D
:10503C008D480B004D480B0025480B00000000006C
:10504C000000000025490B0091490B0069490B0039
:10505C0039450B0039490B0055490B0047490B00EA
:10506C0063490B0027490B002B490B000000000083
:10507C0000000000C9490B00134A0B00EB490B0060
:10508C00CB490B00F3490B00FB490B00034A0B0007
:10509C000B4A0B000000000000000000BB4A0B0094
:1050AC00B14A0B00A74A0B005D4A0B009B4A0B0050
:1050BC008F4A0B00194B0B00214B0B00834A0B0042
:1050CC007B4A0B00714A0B00674A0B00514B0B00DB
:1050DC000000000000000000D94A0B00E34A0B005E
:1050EC00ED4A0B00F74A0B00014B0B000D4B0B006C
:1050FC00194B0B00214B0B00294B0B00354B0B00B4
:10510C003D4B0B00474B0B00514B0B0000524545E0
:10511C004E54206D616C6C6F6320737563636565B1
:10512C00646564002F6D6E742F776F726B73706192
:10513C0063652F776F726B73706163652F474343A1
:10514C002D31302D706970656C696E652F6A656ED6
:10515C006B696E732D4743432D31302D706970652B
:10516C006C696E652D34385F323032303131323407
:10517C005F313630363138303634312F7372632F1D
:10518C006E65776C69622F6E65776C69622F6C69DE
:10519C0062632F7374646C69622F72616E642E6328
:1051AC0000000000E5400B00DD440B0005450B0042
:1051BC0029450B00CD450B00DD450B00F1450B00DF
:0851CC00C54A0B00294C0B0041
:1051D400040000001400000003000000474E5500C6
:1051E400CC1176599A841DDA11D18F47F0D140DB66
:0451F4002DBEBFC845
:1051F800FC4F0B0048E60320000000000000000000
:105208000000000000000000000000000000000096
:105218000000000000000000000000000000000086
:105228000000000000000000000000000000000076
:105238000000000000000000000000000000000066
:105248000000000000000000000000000000000056
:0C5258000000000000000000ECE7032054
:045264000000000046
:10526E0000000102030405060708090A0B0C0D0EC7
:10527E000F101112131415161718191A1B1C1D1EB8
:04528E001F202800B5
:045292007856341204
:04000003B000401CED
:00000001FF
